:104000005542200135D0085A82450011314000390F
:104010003F4000000F9308249242001120012F839B
:104020009F4F88400011F8233F4000000F93072462
:104030009242001120011F83CF430011F923044154
:1040400024532183B240805A2001F2433200F240CF
:10405000100031008443FCFF053C1F44FCFF1F534C
:10406000844FFCFF1F44FCFF3F90204EF63B5F4215
:1040700031007FE01000C24F3100EC3F32D0F00041
:08408000FD3F304086400013B3
:10FFE0008240824082408240824082408240824001
:10FFF0008240824082408240824082408240004073
:0400000300004000B9
:00000001FF
